:100000000C9462000C9481000C9481000C9481008B
:100010000C9481000C9481000C9481000C9481005C
:100020000C9481000C9481000C9481000C9481004C
:100030000C9481000C94FA000C9481000C948100C3
:100040000C9481000C9481000C9481000C9481002C
:100050000C9481000C9481000C9481000C9481001C
:100060000C9481000C9481000C9481000C9481000C
:100070000C9481000C9481000C9481000C948100FC
:100080000C9481000C9481000C9481006B027B0223
:10009000DD02E402F502FC020E03150327032E0322
:1000A0003F03460358035F033E043E048C033E04B3
:1000B000A803CB03E403070420043E0428043E0401
:1000C00032043E0411241FBECFEFD0E4DEBFCDBF0B
:1000D00011E0A0E0B1E0EAEBFCE000E00BBF02C001
:1000E00007900D92A232B107D9F721E0A2E2B1E068
:1000F00001C01D92A033B207E1F70E944B040C949B
:100100005B060C940000CF93DF9300D01F92CDB715
:10011000DEB789837B836A8389818A3031F48A815F
:100120009B81BC018DE00E94830080EC90E0FC018B
:100130008081882F90E080729927892BB1F386EC1B
:1001400090E02981FC01208380E090E00F900F90E7
:100150000F90DF91CF910895CF93DF93CDB7DEB7A6
:1001600081E890E02BE0FC01208388E890E02DE717
:1001700030E0FC01318320838FE690E022E0FC0137
:10018000208384E890E0FC011182108280910E01AE
:1001900090910F01A0911001B09111018093230162
:1001A00090932401A0932501B09326018FE590E060
:1001B0002FE530E0F90120812068FC012083000058
:1001C000DF91CF910895CF93DF93CDB7DEB781E86C
:1001D00090E0FC0110820000DF91CF910895CF9351
:1001E000DF93CDB7DEB781E0809322010000DF917D
:1001F000CF9108951F920F9200905F000F921124EB
:1002000000905B000F922F933F934F935F936F93F8
:100210007F938F939F93AF93BF93EF93FF93CF936E
:10022000DF93CDB7DEB78091230190912401A09197
:100230002501B09126010197A109B10980932301FD
:1002400090932401A0932501B0932601809123016E
:1002500090912401A0912501B0912601892B8A2B30
:100260008B2B91F40E94EF0080910E0190910F0171
:10027000A0911001B091110180932301909324016A
:10028000A0932501B09326010000DF91CF91FF914B
:10029000EF91BF91AF919F918F917F916F915F91FE
:1002A0004F913F912F910F9000925B000F90009221
:1002B0005F000F901F901895CF93DF9300D000D070
:1002C000CDB7DEB769837A838B839C8389819A81DA
:1002D000AB81BC8180930E0190930F01A09310011C
:1002E000B093110180910E0190910F01A091100126
:1002F000B09111018093230190932401A0932501D3
:10030000B093260100000F900F900F900F90DF9197
:10031000CF9108950F931F93CF93DF9300D000D018
:10032000CDB7DEB769837A838B839C838091280164
:1003300090912901A0912A01B0912B019C01AD015E
:1003400069817A818B819C810E948A04882309F4C7
:1003500077C020E030E0A90169817A818B819C819E
:100360000E948A04882351F481E990E021E930E079
:10037000F90120812870FC01208309C081E990E007
:1003800021E930E0F90120812360FC01208328E588
:1003900039E344E75FE369817A818B819C810E9424
:1003A0008A04882344F488E990E02FEF3FEFFC01B2
:1003B0003183208334C020E034E244EF56E4698185
:1003C0007A818B819C810E94E905181634F488E9B2
:1003D00090E0FC011182108222C008E910E020E0C8
:1003E00030E040E053E469817A818B819C810E94F6
:1003F000EE05DC01CB019C01AD0160E074E284EF0D
:100400009AE40E948F04DC01CB01BC01CD010E9463
:100410000105DC01CB010197F8019183808384E918
:1004200090E0FC011182108289819A81AB81BC81AC
:100430008093280190932901A0932A01B0932B0166
:1004400000000F900F900F900F90DF91CF911F91B0
:100450000F910895CF93DF93CDB7DEB780E990E099
:1004600020E4FC01208381E990E02BE0FC01208363
:1004700060E070E0CB010E948A010000DF91CF9123
:100480000895CF93DF93CDB7DEB780E990E0FC010C
:10049000108280E990E0FC0110820000DF91CF9192
:1004A0000895CF93DF93CDB7DEB780912E01909161
:1004B0002F01CC01A0E0B0E040E050E02DE030E0C2
:1004C000841B950B2817390708F40BC18A5B9F4FD3
:1004D000FC010C94810481E090E090932F018093C3
:1004E0002E0160E070E0CB010E948A01109227018A
:1004F00010922D01FBC080912C01813059F4809124
:100500002D01882339F482E090E090932F018093AD
:100510002E0152C080912C01813059F480912D011F
:10052000882339F088E090E090932F0180932E018A
:1005300043C080912C01823059F480912D01882391
:1005400039F084E090E090932F0180932E0134C025
:1005500080912C01843059F480912D01882339F049
:1005600086E090E090932F0180932E0125C080912A
:100570002C01823059F480912D01882339F48AE0CE
:1005800090E090932F0180932E0116C080912C0152
:10059000843059F480912D01882339F48CE090E067
:1005A00090932F0180932E0107C081E090E09093FB
:1005B0002F0180932E019AC099C083E090E0909320
:1005C0002F0180932E0192C080912C01882339F055
:1005D00083E090E090932F0180932E0106C081E08C
:1005E00090E090932F0180932E0185E090E090930E
:1005F0002F0180932E017AC080912C01823039F432
:1006000085E090E090932F0180932E016FC081E0F0
:1006100090E090932F0180932E0168C087E090E0D6
:1006200090932F0180932E0161C080912C01843022
:1006300039F487E090E090932F0180932E0156C00B
:1006400081E090E090932F0180932E014FC089E0CC
:1006500090E090932F0180932E0148C080912C014F
:10066000882339F089E090E090932F0180932E0148
:1006700006C081E090E090932F0180932E0185E0E9
:1006800090E090932F0180932E0130C080912C0137
:10069000823039F485E090E090932F0180932E0111
:1006A00025C081E090E090932F0180932E011EC021
:1006B00087E090E090932F0180932E0117C08091E6
:1006C0002C01843039F487E090E090932F018093DF
:1006D0002E010CC081E090E090932F0180932E01B9
:1006E00005C010922F0110922E01000080912E0162
:1006F00090912F01CC01A0E0B0E040E050E02DE06F
:1007000030E0841B950B2817390708F4B5C08C5AC4
:100710009F4FFC010C94810480912701882F90E069
:10072000880F991F8E5E9E4FFC0180819181CC01C4
:10073000A0E0B0E0BC01CD010E943705DC01CB0197
:10074000BC01CD010E948A0181E080932D019FC0F0
:1007500080912701873008F093C0809127018F5F37
:100760008093270180912701882F90E0880F991F9F
:100770008E5E9E4FFC0180819181CC01A0E0B0E0B3
:10078000BC01CD010E943705DC01CB01BC01CD01CC
:100790000E948A0175C080912701882F90E0880F00
:1007A000991F8E5E9E4FFC0180819181CC01A0E05B
:1007B000B0E0BC01CD010E943705DC01CB01BC01DA
:1007C000CD010E948A0163C080912701882309F42A
:1007D00059C0809127018150809327018091270182
:1007E000882F90E0880F991F8E5E9E4FFC018081BC
:1007F0009181CC01A0E0B0E0BC01CD010E943705A1
:10080000DC01CB01BC01CD010E948A013BC080917B
:100810002701882F90E0880F991F8E5E9E4FFC0164
:1008200080819181CC01A0E0B0E0BC01CD010E94AB
:100830003705DC01CB01BC01CD010E948A0127C034
:1008400060E070E0CB010E948A0110922D011FC070
:10085000809127018730C0F4809127018F5F8093BA
:10086000270112C080912701882381F08091270100
:100870008150809327010AC0000009C0000007C012
:10088000000005C0000003C0000001C0000000001F
:10089000DF91CF910895CF93DF93CDB7DEB781E29B
:1008A00090E0FC01108282E290E02FEFFC012083B7
:1008B00084E290E02FEFFC01208385E290E0FC01D0
:1008C000108210922F0110922E010E942A0262E3E0
:1008D00070E080E090E00E945C010E94AC0080E249
:1008E00090E0FC0180818095877080932C010E94AC
:1008F00051020000809122018823E1F3109222012D
:10090000EECFEE0FFF1F0024001C0BBE0790F691E8
:10091000E02D09940E94740508F481E008950E9476
:10092000A3040C94AF050E94A80558F00E94A105ED
:1009300040F029F45F3F29F00C94980551110C9474
:10094000E3050C949E050E94C00568F39923B1F35A
:10095000552391F3951B550BBB27AA2762177307E5
:10096000840738F09F5F5F4F220F331F441FAA1F79
:10097000A9F335D00E2E3AF0E0E832D09150504035
:10098000E695001CCAF72BD0FE2F29D0660F771FE3
:10099000881FBB1F261737074807AB07B0E809F0C9
:1009A000BB0B802DBF01FF2793585F4F3AF09E3F4E
:1009B000510578F00C9498050C94E3055F3FE4F33F
:1009C000983ED4F3869577956795B795F7959F5F91
:1009D000C9F7880F911D9695879597F90895E1E0DD
:1009E000660F771F881FBB1F621773078407BA073C
:1009F00020F0621B730B840BBA0BEE1F88F7E09597
:100A000008950E9408056894B1110C94E3050895B7
:100A10000E94C80588F09F5798F0B92F9927B751C1
:100A2000B0F0E1F0660F771F881F991F1AF0BA9592
:100A3000C9F714C0B13091F00E94E205B1E0089509
:100A40000C94E205672F782F8827B85F39F0B93FFB
:100A5000CCF3869577956795B395D9F73EF4909545
:100A60008095709561957F4F8F4F9F4F0895E894C3
:100A700009C097FB3EF490958095709561957F4FE6
:100A80008F4F9F4F9923A9F0F92F96E9BB27939594
:100A9000F695879577956795B795F111F8CFFAF4A4
:100AA000BB0F11F460FF1BC06F5F7F4F8F4F9F4FD5
:100AB00016C0882311F096E911C0772321F09EE833
:100AC000872F762F05C0662371F096E8862F70E099
:100AD00060E02AF09A95660F771F881FDAF7880F73
:100AE0009695879597F90895990F0008550FAA0BC9
:100AF000E0E8FEEF16161706E807F907C0F0121631
:100B00001306E407F50798F0621B730B840B950B33
:100B100039F40A2661F0232B242B252B21F4089588
:100B20000A2609F4A140A6958FEF811D811D089525
:100B300097F99F6780E870E060E008959FEF80EC90
:100B4000089500240A941616170618060906089533
:100B500000240A9412161306140605060895092E99
:100B60000394000C11F4882352F0BB0F40F4BF2B08
:100B700011F460FF04C06F5F7F4F8F4F9F4F089548
:100B800057FD9058440F551F59F05F3F71F047953E
:100B9000880F97FB991F61F09F3F79F08795089523
:100BA000121613061406551FF2CF4695F1DF08C042
:100BB000161617061806991FF1CF8695710561055F
:100BC00008940895E894BB2766277727CB0197F907
:100BD00008950E94740508F48FEF08950E9401069D
:100BE0000C94AF050E94A10538F00E94A80520F0E2
:100BF000952311F00C9498050C949E0511240C94E7
:100C0000E3050E94C00570F3959FC1F3950F50E076
:100C1000551F629FF001729FBB27F00DB11D639FAE
:100C2000AA27F00DB11DAA1F649F6627B00DA11D54
:100C3000661F829F2227B00DA11D621F739FB00DFA
:100C4000A11D621F839FA00D611D221F749F33276A
:100C5000A00D611D231F849F600D211D822F762F03
:100C60006A2F11249F5750409AF0F1F088234AF0E0
:100C7000EE0FFF1FBB1F661F771F881F915050404C
:100C8000A9F79E3F510580F00C9498050C94E3055C
:100C90005F3FE4F3983ED4F3869577956795B795D3
:100CA000F795E7959F5FC1F7FE2B880F911D9695ED
:0A0CB000879597F90895F894FFCF97
:100CBA0000000002000000008300000000000100A4
:100CCA0000000501250149015D018801B801ED0116
:020CDA000B020B
:00000001FF
