:100000000C9446000C9465000C9465000C946500FB
:100010000C9465000C9465000C9465000C946500CC
:100020000C9465000C9465000C9465000C946500BC
:100030000C9465000C94DE000C9465000C94650033
:100040000C9465000C9465000C9465000C9465009C
:100050000C9465000C9465000C9465000C9465008C
:100060000C9465000C9465000C9465000C9465007C
:100070000C9465000C9465000C9465000C9465006C
:100080000C9465000C9465000C94650011241FBE4F
:10009000CFEFD0E4DEBFCDBF11E0A0E0B1E0E6E6F7
:1000A000FAE000E00BBF02C007900D92A034B10748
:1000B000D9F721E0A0E4B1E001C01D92AE34B2074F
:1000C000E1F70E9423030C9431050C940000CF93B8
:1000D000DF9300D01F92CDB7DEB789837B836A831D
:1000E00089818A3031F48A819B81BC018DE00E9434
:1000F000670080EC90E0FC018081882F90E08072A6
:100100009927892BB1F386EC90E02981FC012083AB
:1001100080E090E00F900F900F90DF91CF910895C5
:10012000CF93DF93CDB7DEB781E890E02BE0FC0101
:10013000208388E890E02DE730E0FC0131832083C4
:100140008FE690E022E0FC01208384E890E0FC014F
:100150001182108280910E0190910F01A0911001E7
:10016000B09111018093410190934201A09343010A
:10017000B09344018FE590E02FE530E0F901208154
:100180002068FC0120830000DF91CF910895CF9378
:10019000DF93CDB7DEB781E890E0FC01108200006C
:1001A000DF91CF910895CF93DF93CDB7DEB781E094
:1001B000809340010000DF91CF9108951F920F922C
:1001C00000905F000F92112400905B000F922F931C
:1001D0003F934F935F936F937F938F939F93AF93CF
:1001E000BF93EF93FF93CF93DF93CDB7DEB78091AB
:1001F000410190914201A0914301B09144010197C6
:10020000A109B1098093410190934201A093430158
:10021000B09344018091410190914201A09143012A
:10022000B0914401892B8A2B8B2B91F40E94D3002F
:1002300080910E0190910F01A0911001B0911101D8
:100240008093410190934201A0934301B0934401F4
:100250000000DF91CF91FF91EF91BF91AF919F91FE
:100260008F917F916F915F914F913F912F910F905F
:1002700000925B000F9000925F000F901F90189506
:10028000CF93DF9300D000D0CDB7DEB769837A83F8
:100290008B839C8389819A81AB81BC8180930E0181
:1002A00090930F01A0931001B093110180910E0162
:1002B00090910F01A0911001B09111018093410123
:1002C00090934201A0934301B093440100000F902A
:1002D0000F900F900F90DF91CF9108950F931F9380
:1002E000CF93DF9300D000D0CDB7DEB769837A8398
:1002F0008B839C838091470190914801A091490193
:10030000B0914A019C01AD0169817A818B819C8108
:100310000E946003882309F477C020E030E0A9013F
:1003200069817A818B819C810E946003882351F4CA
:1003300081E990E021E930E0F90120812870FC0199
:10034000208309C081E990E021E930E0F9012081B2
:100350002360FC01208328E539E344E75FE36981FA
:100360007A818B819C810E946003882344F488E910
:1003700090E02FEF3FEFFC013183208334C020E079
:1003800034E244EF56E469817A818B819C810E943A
:10039000BF04181634F488E990E0FC011182108241
:1003A00022C008E910E020E030E040E053E4698139
:1003B0007A818B819C810E94C404DC01CB019C0169
:1003C000AD0160E074E284EF9AE40E946503DC0111
:1003D000CB01BC01CD010E94D703DC01CB01019709
:1003E000F8019183808384E990E0FC0111821082FE
:1003F00089819A81AB81BC818093470190934801A8
:10040000A0934901B0934A0100000F900F900F9004
:100410000F90DF91CF911F910F910895CF93DF93AC
:10042000CDB7DEB780E990E020E4FC01208381E9CC
:1004300090E02BE0FC01208360E070E0CB010E94A3
:100440006E010000DF91CF910895CF93DF93CDB778
:10045000DEB780E990E0FC01108280E990E0FC01C9
:1004600010820000DF91CF910895CF93DF93CDB735
:10047000DEB780914C0190914D018230910579F168
:100480008330910528F4009751F00197B1F08DC0A9
:100490008330910559F1049709F475C086C084E052
:1004A00090E090934D0180934C0160E070E0CB01AF
:1004B0000E946E01109245017DC080914B018823FE
:1004C00039F082E090E090934D0180934C0172C02E
:1004D00081E090E090934D0180934C016BC083E0EC
:1004E00090E090934D0180934C0164C08091450150
:1004F000882F90E0805D9E4FFC01908180914601A5
:10050000981738F083E090E090934D0180934C0170
:1005100051C080914501803180F080914B0188234A
:1005200061F481E090E090934D0180934C0160E094
:1005300070E0CB010E946E0125C0809145018031A1
:1005400080F080914B01882361F084E090E09093EB
:100550004D0180934C0160E070E0CB010E946E0180
:1005600011C082E090E090934D0180934C01809106
:1005700045018F5F8093450160E070E0CB010E94F0
:100580006E0118C017C080914B01882339F084E0B8
:1005900090E090934D0180934C010CC081E090E07D
:1005A00090934D0180934C0105C010924D01109223
:1005B0004C01000080914C0190914D0182309105D9
:1005C000C1F08330910528F40097C1F1019739F00B
:1005D00036C08330910531F1049751F130C060E0AD
:1005E00070E0CB010E946E0110924501109246010D
:1005F00026C080914501882F90E0880F991F8E5E5C
:100600009E4FFC0180819181CC01A0E0B0E0BC0153
:10061000CD010E940D04DC01CB01BC01CD010E9483
:100620006E010DC0809146018F5F8093460107C027
:1006300060E070E0CB010E946E0101C0000000008C
:10064000DF91CF910895CF93DF93CDB7DEB781E2ED
:1006500090E0FC01108282E290E02FEFFC01208309
:1006600084E290E02FEFFC01208385E290E0FC0122
:10067000108210924D0110924C010E940E026AEFFE
:1006800070E080E090E00E9440010E94900080E2D3
:1006900090E0FC018081882F90E08170992721E013
:1006A000892B09F020E0822F80934B010E943502B4
:1006B0000000809140018823E1F310924001E7CFD0
:1006C0000E944A0408F481E008950E9479030C9482
:1006D00085040E947E0458F00E94770440F029F4BB
:1006E0005F3F29F00C946E0451110C94B9040C94E2
:1006F00074040E94960468F39923B1F3552391F38F
:10070000951B550BBB27AA2762177307840738F080
:100710009F5F5F4F220F331F441FAA1FA9F335D0DD
:100720000E2E3AF0E0E832D091505040E695001C91
:10073000CAF72BD0FE2F29D0660F771F881FBB1F4B
:10074000261737074807AB07B0E809F0BB0B802D29
:10075000BF01FF2793585F4F3AF09E3F510578F055
:100760000C946E040C94B9045F3FE4F3983ED4F308
:10077000869577956795B795F7959F5FC9F7880F29
:10078000911D9695879597F90895E1E0660F771F7B
:10079000881FBB1F621773078407BA0720F0621B0C
:1007A000730B840BBA0BEE1F88F7E09508950E9437
:1007B000DE036894B1110C94B90408950E949E045C
:1007C00088F09F5798F0B92F9927B751B0F0E1F012
:1007D000660F771F881F991F1AF0BA95C9F714C0C2
:1007E000B13091F00E94B804B1E008950C94B804BF
:1007F000672F782F8827B85F39F0B93FCCF38695FB
:1008000077956795B395D9F73EF490958095709557
:1008100061957F4F8F4F9F4F0895E89409C097FBD4
:100820003EF490958095709561957F4F8F4F9F4FC7
:100830009923A9F0F92F96E9BB279395F69587950B
:1008400077956795B795F111F8CFFAF4BB0F11F4CE
:1008500060FF1BC06F5F7F4F8F4F9F4F16C0882375
:1008600011F096E911C0772321F09EE8872F762FAB
:1008700005C0662371F096E8862F70E060E02AF0EC
:100880009A95660F771F881FDAF7880F96958795D8
:1008900097F90895990F0008550FAA0BE0E8FEEFAD
:1008A00016161706E807F907C0F012161306E40734
:1008B000F50798F0621B730B840B950B39F40A262D
:1008C00061F0232B242B252B21F408950A2609F40B
:1008D000A140A6958FEF811D811D089597F99F670F
:1008E00080E870E060E008959FEF80EC08950024B8
:1008F0000A941616170618060906089500240A9485
:1009000012161306140605060895092E0394000C0A
:1009100011F4882352F0BB0F40F4BF2B11F460FF99
:1009200004C06F5F7F4F8F4F9F4F089557FD9058C2
:10093000440F551F59F05F3F71F04795880F97FBA3
:10094000991F61F09F3F79F087950895121613065D
:100950001406551FF2CF4695F1DF08C0161617068C
:100960001806991FF1CF86957105610508940895C1
:10097000E894BB2766277727CB0197F908950E9453
:100980004A0408F48FEF08950E94D7040C9485045C
:100990000E94770438F00E947E0420F0952311F025
:1009A0000C946E040C94740411240C94B9040E94E9
:1009B000960470F3959FC1F3950F50E0551F629F09
:1009C000F001729FBB27F00DB11D639FAA27F00DA8
:1009D000B11DAA1F649F6627B00DA11D661F829FCF
:1009E0002227B00DA11D621F739FB00DA11D621FB4
:1009F000839FA00D611D221F749F3327A00D611DD1
:100A0000231F849F600D211D822F762F6A2F1124B2
:100A10009F5750409AF0F1F088234AF0EE0FFF1FE5
:100A2000BB1F661F771F881F91505040A9F79E3F3C
:100A3000510580F00C946E040C94B9045F3FE4F30C
:100A4000983ED4F3869577956795B795F795E79592
:100A50009F5FC1F7FE2B880F911D9695879597F99B
:060A60000895F894FFCF99
:100A66000000000200000000670000000000010016
:100A76000000490149015D01880188015D014901C4
:100A86002501050105012501490149012501250128
:100A96000202020202020202020202020201040031
:00000001FF
