:100000000C945A000C9479000C9479000C947900AB
:100010000C9479000C9479000C9479000C9479007C
:100020000C9479000C9479000C9479000C9479006C
:100030000C9479000C94F2000C9479000C947900E3
:100040000C9479000C9479000C9479000C9479004C
:100050000C9479000C9479000C9479000C9479003C
:100060000C9479000C9479000C9479000C9479002C
:100070000C9479000C9479000C9479000C9479001C
:100080000C9479000C9479000C947900630273024B
:10009000B702BE02CF02D602E802EF020103080354
:1000A000D303D3033503D303510374038D03B00388
:1000B000C903D30311241FBECFEFD0E4DEBFCDBFF1
:1000C00011E0A0E0B1E0ECEDFBE000E00BBF02C00E
:1000D00007900D92A232B107D9F721E0A2E2B1E078
:1000E00001C01D92A033B207E1F70E94DC030C941B
:1000F000EC050C940000CF93DF9300D01F92CDB796
:10010000DEB789837B836A8389818A3031F48A816F
:100110009B81BC018DE00E947B0080EC90E0FC01A3
:100120008081882F90E080729927892BB1F386EC2B
:1001300090E02981FC01208380E090E00F900F90F7
:100140000F90DF91CF910895CF93DF93CDB7DEB7B6
:1001500081E890E02BE0FC01208388E890E02DE727
:1001600030E0FC01318320838FE690E022E0FC0147
:10017000208384E890E0FC011182108280910E01BE
:1001800090910F01A0911001B09111018093230172
:1001900090932401A0932501B09326018FE590E070
:1001A0002FE530E0F90120812068FC012083000068
:1001B000DF91CF910895CF93DF93CDB7DEB781E87C
:1001C00090E0FC0110820000DF91CF910895CF9361
:1001D000DF93CDB7DEB781E0809322010000DF918D
:1001E000CF9108951F920F9200905F000F921124FB
:1001F00000905B000F922F933F934F935F936F9309
:100200007F938F939F93AF93BF93EF93FF93CF937E
:10021000DF93CDB7DEB78091230190912401A091A7
:100220002501B09126010197A109B109809323010D
:1002300090932401A0932501B0932601809123017E
:1002400090912401A0912501B0912601892B8A2B40
:100250008B2B91F40E94E70080910E0190910F0189
:10026000A0911001B091110180932301909324017A
:10027000A0932501B09326010000DF91CF91FF915B
:10028000EF91BF91AF919F918F917F916F915F910E
:100290004F913F912F910F9000925B000F90009231
:1002A0005F000F901F901895CF93DF9300D000D080
:1002B000CDB7DEB769837A838B839C8389819A81EA
:1002C000AB81BC8180930E0190930F01A09310012C
:1002D000B093110180910E0190910F01A091100136
:1002E000B09111018093230190932401A0932501E3
:1002F000B093260100000F900F900F900F90DF91A8
:10030000CF9108950F931F93CF93DF9300D000D028
:10031000CDB7DEB769837A838B839C838091280174
:1003200090912901A0912A01B0912B019C01AD016E
:1003300069817A818B819C810E941B04882309F446
:1003400077C020E030E0A90169817A818B819C81AE
:100350000E941B04882351F481E990E021E930E0F8
:10036000F90120812870FC01208309C081E990E017
:1003700021E930E0F90120812360FC01208328E598
:1003800039E344E75FE369817A818B819C810E9434
:100390001B04882344F488E990E02FEF3FEFFC0131
:1003A0003183208334C020E034E244EF56E4698195
:1003B0007A818B819C810E947A05181634F488E931
:1003C00090E0FC011182108222C008E910E020E0D8
:1003D00030E040E053E469817A818B819C810E9406
:1003E0007F05DC01CB019C01AD0160E074E284EF8C
:1003F0009AE40E942004DC01CB01BC01CD010E94E3
:100400009204DC01CB010197F8019183808384E998
:1004100090E0FC011182108289819A81AB81BC81BC
:100420008093280190932901A0932A01B0932B0176
:1004300000000F900F900F900F90DF91CF911F91C0
:100440000F910895CF93DF93CDB7DEB780E990E0A9
:1004500020E4FC01208381E990E02BE0FC01208373
:1004600060E070E0CB010E9482010000DF91CF913B
:100470000895CF93DF93CDB7DEB780E990E0FC011C
:10048000108280E990E0FC0110820000DF91CF91A2
:100490000895CF93DF93CDB7DEB780912E01909171
:1004A0002F01CC01A0E0B0E040E050E029E030E0D6
:1004B000841B950B2817390708F4BCC08A5B9F4F33
:1004C000FC010C94120481E090E090932F01809342
:1004D0002E0160E070E0CB010E94820110922701A2
:1004E00010922D01ACC080912C01813059F4809183
:1004F0002D01882339F482E090E090932F018093BE
:100500002E0134C080912C01813059F480912D014D
:10051000882339F088E090E090932F0180932E019A
:1005200025C080912C01823059F480912D018823BF
:1005300039F084E090E090932F0180932E0116C053
:1005400080912C01843059F480912D01882339F059
:1005500086E090E090932F0180932E0107C081E008
:1005600090E090932F0180932E0169C068C083E0D2
:1005700090E090932F0180932E0161C080912C0117
:10058000882339F083E090E090932F0180932E012F
:1005900006C081E090E090932F0180932E0185E0CA
:1005A00090E090932F0180932E0149C080912C01FF
:1005B000823039F485E090E090932F0180932E01F2
:1005C0003EC081E090E090932F0180932E0137C0D0
:1005D00087E090E090932F0180932E0130C08091AE
:1005E0002C01843039F487E090E090932F018093C0
:1005F0002E0125C081E090E090932F0180932E0181
:100600001EC089E090E090932F0180932E0117C0C7
:1006100080912C01882339F089E090E090932F019C
:1006200080932E010CC081E090E090932F01809385
:100630002E0105C010922F0110922E010000809112
:100640002E0190912F01CC01A0E0B0E040E050E0FD
:1006500029E030E0841B950B2817390708F4A1C066
:10066000805B9F4FFC010C94120480912701882F1E
:1006700090E0880F991F8E5E9E4FFC0180819181D2
:10068000CC01A0E0B0E0BC01CD010E94C804DC01B7
:10069000CB01BC01CD010E94820181E080932D013C
:1006A00087C080912701873008F07FC080912701A3
:1006B0008F5F8093270180912701882F90E0880F1A
:1006C000991F8E5E9E4FFC0180819181CC01A0E03C
:1006D000B0E0BC01CD010E94C804DC01CB01BC012B
:1006E000CD010E94820161C080912701882F90E096
:1006F000880F991F8E5E9E4FFC0180819181CC01F5
:10070000A0E0B0E0BC01CD010E94C804DC01CB0137
:10071000BC01CD010E9482014BC08091270188233A
:1007200009F445C080912701815080932701809171
:100730002701882F90E0880F991F8E5E9E4FFC0145
:1007400080819181CC01A0E0B0E0BC01CD010E948C
:10075000C804DC01CB01BC01CD010E94820127C08D
:1007600080912701882F90E0880F991F8E5E9E4F01
:10077000FC0180819181CC01A0E0B0E0BC01CD0101
:100780000E94C804DC01CB01BC01CD010E948201A2
:100790000FC060E070E0CB010E94820110922D0139
:1007A00007C0000005C0000003C0000001C0000039
:1007B0000000DF91CF910895CF93DF93CDB7DEB7DF
:1007C00081E290E0FC01108282E290E02FEFFC01D8
:1007D000208384E290E02FEFFC01208385E290E00B
:1007E000FC01108210922F0110922E010E94220211
:1007F00062E370E080E090E00E9454010E94A40057
:1008000080E290E0FC0180818095877080932C01CC
:100810000E9449020000809122018823E1F3109296
:100820002201EECFEE0FFF1F0024001C0BBE07902D
:10083000F691E02D09940E94050508F481E00895E1
:100840000E9434040C9440050E94390558F00E941F
:10085000320540F029F45F3F29F00C94290551112D
:100860000C9474050C942F050E94510568F399238C
:10087000B1F3552391F3951B550BBB27AA2762179C
:100880007307840738F09F5F5F4F220F331F441FA9
:10089000AA1FA9F335D00E2E3AF0E0E832D09150DD
:1008A0005040E695001CCAF72BD0FE2F29D0660FCA
:1008B000771F881FBB1F261737074807AB07B0E80D
:1008C00009F0BB0B802DBF01FF2793585F4F3AF013
:1008D0009E3F510578F00C9429050C9474055F3FF8
:1008E000E4F3983ED4F3869577956795B795F79599
:1008F0009F5FC9F7880F911D9695879597F9089581
:10090000E1E0660F771F881FBB1F6217730784071C
:10091000BA0720F0621B730B840BBA0BEE1F88F72B
:10092000E09508950E9499046894B1110C9474059F
:1009300008950E94590588F09F5798F0B92F99277C
:10094000B751B0F0E1F0660F771F881F991F1AF0BA
:10095000BA95C9F714C0B13091F00E947305B1E0A7
:1009600008950C947305672F782F8827B85F39F0A6
:10097000B93FCCF3869577956795B395D9F73EF453
:1009800090958095709561957F4F8F4F9F4F0895FB
:10099000E89409C097FB3EF4909580957095619519
:1009A0007F4F8F4F9F4F9923A9F0F92F96E9BB27CF
:1009B0009395F695879577956795B795F111F8CF4B
:1009C000FAF4BB0F11F460FF1BC06F5F7F4F8F4FB6
:1009D0009F4F16C0882311F096E911C0772321F0AC
:1009E0009EE8872F762F05C0662371F096E8862F44
:1009F00070E060E02AF09A95660F771F881FDAF79B
:100A0000880F9695879597F90895990F0008550FC7
:100A1000AA0BE0E8FEEF16161706E807F907C0F084
:100A200012161306E407F50798F0621B730B840B8C
:100A3000950B39F40A2661F0232B242B252B21F466
:100A400008950A2609F4A140A6958FEF811D811D06
:100A5000089597F99F6780E870E060E008959FEF40
:100A600080EC089500240A94161617061806090645
:100A7000089500240A941216130614060506089514
:100A8000092E0394000C11F4882352F0BB0F40F49C
:100A9000BF2B11F460FF04C06F5F7F4F8F4F9F4FDC
:100AA000089557FD9058440F551F59F05F3F71F05E
:100AB0004795880F97FB991F61F09F3F79F08795C5
:100AC0000895121613061406551FF2CF4695F1DF4E
:100AD00008C0161617061806991FF1CF86957105DE
:100AE000610508940895E894BB2766277727CB0112
:100AF00097F908950E94050508F48FEF08950E9464
:100B000092050C9440050E94320538F00E94390588
:100B100020F0952311F00C9429050C942F05112435
:100B20000C9474050E94510570F3959FC1F3950FC5
:100B300050E0551F629FF001729FBB27F00DB11D61
:100B4000639FAA27F00DB11DAA1F649F6627B00DF1
:100B5000A11D661F829F2227B00DA11D621F739FDA
:100B6000B00DA11D621F839FA00D611D221F749FE8
:100B70003327A00D611D231F849F600D211D822F2F
:100B8000762F6A2F11249F5750409AF0F1F0882356
:100B90004AF0EE0FFF1FBB1F661F771F881F915083
:100BA0005040A9F79E3F510580F00C9429050C9404
:100BB00074055F3FE4F3983ED4F386957795679587
:100BC000B795F795E7959F5FC1F7FE2B880F911DAD
:0C0BD0009695879597F90895F894FFCF4B
:100BDC0000000002000000007B000000000001008B
:100BEC0000000501250149015D018801B801ED01F5
:020BFC000B02EA
:00000001FF
